:100000000C9459050C9481050C9481050C94810580
:100010000C9481050C9481050C9481050C94810548
:100020000C9481050C9481050C9473140C94FA14AF
:100030000C9481050C9481050C9481050C94810528
:100040000C9481050C9481050C9481050C94810518
:100050000C9481050C9481050C9481050C94B60FC9
:100060000C9481050C9481050C9481050C948105F8
:100070000C9481050C9481050C9481050C948105E8
:100080000C9481050C9481050C9481050C948105D8
:100090000C9481050C9481050C9481050C948105C8
:1000A0000C9481050C9481050C94810510004F750A
:1000B000744F664D656D6F72794572726F720F0085
:1000C00068656C6C6F2C20776F726C64204B2150CC
:1000D000C34D0154015401740100000000000000F0
:1000E000001A060A06560401067C012E056704253F
:1000F000023B0247015F01BB010D0219027F02B4FE
:1001000001E9014A0613069E0231067D056F06725B
:100110000669066C066106E404BB043C06D4015B78
:10012000050704F90134055B02E80520066F015E4E
:10013000043D049E04280385014A013F05F103CBD9
:10014000016505FC030000FFAB0F05010110090765
:1001500008555001410F6A00027E080200000006A7
:1001600000023804386A00037738397B02007E04C5
:100170000001383C8001060001036F010300017E8D
:100180000000000000060101385004004C0842B392
:1001900001384139520200383AA301395202004174
:1001A00055930139395202005202007B0200384C4B
:1001B000080B777E03000054A1013CFFF907800182
:1001C000170001028501800100000004000138527F
:1001D00000003F6C06000238520000664D6C800142
:1001E00002000205D40104CB0102000069E80569A0
:1001F000F901695B026920067E0500007514024E54
:1002000045AC000C7D9F017E8001000000060002CD
:1002100038390D7E200206000006000238390A7EB9
:10022000740106000005000054A3014C105D6A0231
:100230000654A30145BE006A01077E06000054A3D0
:10024000015B5C6A02085B127CA70154A30153A7FF
:10025000014E5C597CA7016A01097E0A0000750EF7
:10026000054E4C084C095F604C064C070E7DA301FF
:100270005B7CA7017E800100000080010000001669
:1002800000073805384C0876017B0300385C66614E
:1002900067686404640564065B5B5B5B137E130044
:1002A0000D386778000038687801003864047802F7
:1002B00000385203005B640548385203005C640652
:1002C00048385203005D640748385203005E6408F2
:1002D00048385203005F6409483852030060640ADA
:1002E00048385203004C06640B48385203004C0750
:1002F000640C48384F00005C03384F01006142072E
:1003000003384F01005C03384F02005C036632196A
:1003100003385B780500551F03384C10780500380A
:100320004C105C5B6A030A7E090004675C3E3C0378
:10033000384E4F05004C086B567805003867780931
:1003400000385B780A0068325A03675C3D5A03380C
:100350004E4F05005F6B5678050046CF0000384FC2
:1003600000005B01384F02005B01384F0100614221
:100370007803384F01005B01384F05004C105A35A7
:10038000A503385E6A010B7F941100385E6A010B89
:100390007F941100385E6A010B7F960000385D6A19
:1003A000010B55CB03384C20384F05006B56027FAC
:1003B000941100384C20384F05006B56027F960090
:1003C00000384C20384F05006B5602384C20384F0F
:1003D00005006B5602385F780600386A000C386AF0
:1003E000000D385D780700385F384F07006B560204
:1003F0007E0900033866675B6A030A7E05000138E0
:100400005C027FD007007E0B01035F76014E5B5BD1
:10041000484E5C4C40484E5D4C14484E5E4C54482F
:100420003B67384F0900343104384F09005C6F5680
:100430004A384C8066336747596B56027E06000186
:10044000384E4F06005F6B56780600384C08384F20
:1004500006006B56027E07000238665B067E0700C8
:100460000238665C065C6C080003384F00006701C8
:10047000384F010061427E04384F01005B01384F64
:1004800005004C105A32900438666A010F559D04DD
:1004900038665F6D566A010B38666A010B7E05008F
:1004A00001384F02005B015C00384F02005C015CC8
:1004B00000384F02005B014C64007E0801025B4A79
:1004C000675F4BDF043852030067475C0338520311
:1004D00000674766676D5C5A5601630255C0043871
:1004E0006A00107E0801025B4A674C084B09053818
:1004F00052030067475C0338520300674766676D25
:100500005C5A5601630255E904386A00107EF00512
:100510000B00090A280306F1030DFC030C3D04102F
:100520009E040807040BBB040FE4040E5E040400E1
:100530000138047E0600023866566A010E777E088E
:1005400001025B4A67396A00044B5A053839676A09
:1005500001056A011163025544057E0700023866F1
:10056000586A02127E090003494071437705384CEE
:100570002D6A011149735138494C0A157E0E020447
:100580004C20760144045B6E054940713596053870
:100590004C306A01117E49407136B105370464055B
:1005A00063054968587470564849685872515596A1
:1005B00005640536E70538370464055C6F474C0A67
:1005C0004BD0054C30370464055C6F475955DD0549
:1005D0004C41370464055C6F47594C0A6F576A01F8
:1005E000116205FF55B1057E0300005B7CA9017E09
:1005F0008001000004113405095B05126505073F01
:100600000506000265566656187E060002655666A7
:1006100056197E0400016556166C04000165177EAC
:100620000400007542064E147DA5017E8001000085
:1006300000050001381138617A0C007E0500026661
:100640001A6C5C060E00010E3C06050001380538E8
:100650007FE8037A0800385C790A007EF0050C0018
:1006600000FF83058001000000FFBB05FFA905FF17
:100670009C05FF90058001000000020102020204B7
:100680000204029E0B9E0B9E0B9E0B9E0B9E0B9ECE
:100690000B9E0B9E0B9E0B9E0B9E0B9E0B9E0B9E12
:1006A0000B9E0B9E0B9E0B9E0B9E0B9E0B9E0B9E02
:1006B0000B9E0B9E0B9E0B9E0B9E0B9E0B9E0B9EF2
:1006C0000B9E0B9E0B9E0B9E0B9E0B9E0B9E0B9EE2
:1006D0000B9E0B9E0B9E0B9E0B9E0B9E0B9E0B9ED2
:1006E0000B9E0B9E0B9E0B510B7B0A480B510B5123
:1006F0000B7A0A7B0A7B0A390B9C0A930A480B483F
:100700000B960A160C9C0A480B510B9B0A210C21D4
:100710000C9D0AA80A530CD10A480BB70ABC0ACB95
:100720000ADB0AE30A9A0CDA0AEA0AEA0AEF0AF68C
:100730000AFC0AFD0A060B0F0B1B0B1E0B210B26D6
:100740000B2B0B320B180B580B690B740B790B80AE
:100750000B890B920B9B0BA40BC10B930ACE0BCEF8
:100760000AD80BE10BE80B240C620C7C0CB10C8852
:100770000AB80CB90CC60CC70CC70CDE0CDE0CE8B2
:100780000CEF0C3C0E3C0E3C0E3C0E3C0E3C0E3C6A
:100790000E3C0E3C0E3C0E3C0E3C0E3C0E3C0E3C09
:1007A0000E3C0E3C0E3C0E3C0E3C0E3C0E3C0E3CF9
:1007B0000E3C0E3C0E3C0E3C0E3C0E3C0E3C0E3CE9
:1007C0000E3C0E3C0E3C0E3C0E3C0E3C0E3C0E3CD9
:1007D0000E3C0E3C0E3C0E3C0E3C0E3C0E3C0E3CC9
:1007E0000E3C0E3C0E3C0EF10D190DE60DF10DF117
:1007F0000D180D190D190DD70D3E0D350DE60DE631
:100800000D380DB00E3E0DE60DF10D3D0DBB0EBBCE
:100810000E3F0D4A0DED0E730DE60D590D5E0D6D7B
:100820000D7D0D850D340F7C0D8C0D8C0D910D986B
:100830000D9E0D9F0DA80DB10DBD0DC00DC30DC8B2
:100840000DCD0DD20DBA0DF60D070E120E170E1EA0
:100850000E270E300E390E420E5F0E350D6C0E70E7
:100860000D760E7F0E860EBE0EFC0E160F4B0F2A57
:100870000D520F530F600F610F610F780F780F82C9
:100880000F890F00000000240027002A002D0030EF
:100890000000000000250028002B002E0031000081
:1008A0000000002300260029002C002F000404046F
:1008B0000404030405020202020403020202020607
:1008C00006060606060404020202040408020110D9
:1008D0004080401020408040800802040180402079
:1008E0001002011080102040400000000200080E9D
:1008F0000000030401000B000007060504010008C6
:100900000A0B0C0D09080B00020202010009040089
:10091000000102020000052400100105240101016C
:100920000424020605240600010705810310004087
:1009300009040100020A000000070502024000004D
:1009400007058302400000040309042203410072EA
:10095000006400750069006E006F0020004C0065A7
:10096000006F006E006100720064006F00180341A8
:100970000072006400750069006E006F0020004C7A
:10098000004C0043001201000200000040412336E9
:10099000800001010200011201000202000040413A
:1009A00023368000010102000100C18081C10501E0
:1009B0000902A1010901A100850105091901290305
:1009C00015002501950375018102950175058103C7
:1009D00005010930093109381581257F750895030E
:1009E0008106C0C005010906A1018502050719E0BD
:1009F00029E7150025017501950881029501750803
:100A000081039506750815002565050719002965F8
:100A10008100C00904020001030000000921010156
:100A2000000122650007058403400001000000006A
:100A3000000000002A2B2800000000000000000039
:100A40000000000000000000000000002C9EB4A088
:100A5000A1A2A434A6A7A5AE362D3738271E1F2085
:100A6000212223242526B333B62EB7B89F8485864A
:100A70008788898A8B8C8D8E8F909192939495968E
:100A80009798999A9B9C9D2F3130A3AD350405060C
:100A90000708090A0B0C0D0E0F101112131415166E
:100AA0001718191A1B1C1DAFB1B0B5000712AF13F0
:100AB0007D1611241FBECFEFDAE0DEBFCDBF11E0FF
:100AC000A0E0B1E0ECEBFFE202C005900D92AC3289
:100AD000B107D9F71AE0ACE2B1E001C01D92A63827
:100AE000B107E1F71AE0C2EBDAE004C02297FE0199
:100AF0000E94D817CC3AD107C9F70E94CD050C94B3
:100B000086170C9400000E9451060E945B06FC01AF
:100B10008BE791E060810E941E128093B1010895DD
:100B20000E9451060E945B06FC01808191810E9417
:100B300065100E94710608950E9451060E945B068E
:100B4000FC0180810E94C5109093B2018093B10195
:100B500008951F930E9451060E945B06FC011081BC
:100B60000E945B06FC018081612F0E948A110E9415
:100B700071061F9108951F930E9451060E945B0603
:100B8000FC0110810E945B06FC018081612F0E94A4
:100B9000FD100E9471061F9108950E94290A80E0AD
:100BA00090E00895FFCF0F931F93CF93DF93DC0165
:100BB0008B01149712964D915C911397149681E0D6
:100BC000A83BB80720F0EAE0AF37BE0730F140E8B5
:100BD00051E023C09B01220F331F260F371FF9015D
:100BE0003596E40FF51FE4918E2F90E08017910762
:100BF00061F4F9013696E40FF51F25913491C9018E
:100C0000DF91CF911F910F9108956F5F7F4F6C1708
:100C10007D0704F3FA01459154914115510559F0AE
:100C20004C5F5F4F60E070E0FA01849144505040A7
:100C3000C82FD0E0ECCFAB2B19F0A0E0B0E0BFCFD5
:100C4000FFCF2091B3013091B4012E5F3F4F30931D
:100C5000B4012093B30122503040C9010895880F98
:100C6000991F2091AB013091AC01280F391FC901A8
:100C70000895DB01880F991FE091AB01F091AC0161
:100C8000E80FF91F8D919C919183808308950E94B4
:100C90002106FC018091AF019091B0019183808386
:100CA00008950E942106FC018091B1019091B2014A
:100CB0009183808308952091B3013091B401225033
:100CC00030403093B4012093B301C90108950E94CC
:100CD0005B06FC01808191819093B0018093AF010C
:100CE00008950E945B06FC01808191819093B2017E
:100CF0008093B10108950E945B06FC01808191817F
:100D000008950E945B06FC018081918108952091E5
:100D1000B3013091B401245030403093B40120939A
:100D2000B301C9010895A091B301B091B401E0915C
:100D3000AD01F091AE019F012A5F3F4F8091AB0161
:100D40009091AC018217930791F4828193819093E3
:100D5000AC018093AB01848195819093AE01809327
:100D6000AD01E091A101F091A20195878487809166
:100D7000AB019091AC019093B4018093B3019E912B
:100D80008E919093B6018093B501FD01929182916D
:100D90009093AC018093AB010895AF92BF92CF9234
:100DA000DF92EF92FF920F931F93CF93DF938C010B
:100DB000FC0184918F3F41F4C8010196FC0125910B
:100DC0003491F901099587C0C82EDD240E5F1F4FAD
:100DD000F801849102501040A82EBB240E945106B5
:100DE0007501EE0CFF1CC091B301D091B401CE1976
:100DF000DF09E091AD01F091AE0180819181019612
:100E0000880F991FE80FF91FC601880F991F8C0FD3
:100E10009D1F8E179F07A0F1C60102960E94970999
:100E2000DC01009709F4FFCF1396DC93CE93129761
:100E30008091AD019091AE0115969C938E9314977D
:100E4000FD0120E030E006C089919991958384836B
:100E50002F5F3F4F32962A153B05B4F3B093AE0196
:100E6000A093AD01E091A101F091A201B587A48703
:100E7000ED012696EC0EFD1EF092B401E092B30156
:100E80000F5F1F4FF801849190E00196880F991F22
:100E9000E091B301F091B401E80FF91FF093B401B0
:100EA000E093B30132978091AB019091AC019183B3
:100EB00080838091B5019091B6019093B2018093A7
:100EC000B101D093AC01C093AB010E5F1F4F1093E3
:100ED000B6010093B501DF91CF911F910F91FF9063
:100EE000EF90DF90CF90BF90AF900895CF93DF93B6
:100EF000C091B101D091B201209709F4FFCF0E94B7
:100F0000A3099E01280F391FC901DF91CF910895D0
:100F10001816190614F421E005C0892B11F422E0FB
:100F200001C024E0332727FD30958091850A90E0A9
:100F300028233923232B19F00E94A30905C080918F
:100F4000B5019091B60102969093B6018093B501D8
:100F50000E9471060895EF92FF920F931F93CF9313
:100F6000DF930E94A309F82EE92E1091850A1770CD
:100F70000E945106153009F5EF2DFE2D05911491B3
:100F8000B801685F7F4F8EED91E00E94E408EC01AC
:100F9000009741F10696998388830A5F1F4F1B8350
:100FA0000A83045010406F2D7E2DA8010E948917DE
:100FB000D093B201C093B10115C0163031F4EEE701
:100FC000F6E0E49181EB91E007C0E12FF0E0E85812
:100FD000F94FE4918FEA91E06F2D7E2D4E2F50E076
:100FE0000E948917DF91CF911F910F91FF90EF9091
:100FF00008950E947B062091B1013091B201FC015D
:10100000358324830E94F1090895FC0134972081DF
:1010100031813F77C9010895CF92DF92EF92FF921D
:101020000F931F93CF93DF937C018CEBE81681E045
:10103000F806F0F0E9E8EE16EAE0FE06C8F48CEFF8
:10104000C82E8FEFD82ECE0CDF1CF6010081118147
:1010500017FD0EC0CCEBD1E002C0C80FD91FCE01E6
:101060000E940508009721F0EC16FD06B1F70CC0B0
:1010700020E030E0C901DF91CF911F910F91FF90E7
:10108000EF90DF90CF9008951068F60111830083F0
:1010900021E030E0EFCFCF92DF92EF92FF920F93FB
:1010A0001F93CF93DF93E091AD01F091AE013097A4
:1010B000A1F04091B3015091B401208131812F5FA3
:1010C0003F4F220F331F2E0F3F1F241B350BCA012A
:1010D00060E070E0A9010E949217CFE9D1E0899108
:1010E00099910E940C0881E0C93AD807C1F7809114
:1010F000B1019091B2010E940C080CEB11E026C0E6
:1011000004501040F801808191810C5F1F4F97FFC0
:1011100019C0EE24FF2411C0F801EE0DFF1D20813F
:101120003181C901EC010E940C08892B19F0C0170C
:10113000D10758F00894E11CF11CC70105968C15E5
:101140009D0550F3E801CC0DDD1D8E01C8010E9404
:1011500005086C010097A1F60CEB11E026C09CEF8E
:10116000E92E9FEFF92EE00EF11EF70180819181AB
:1011700097FD16C0E80102C0C20FD31FCE010E9426
:1011800005089C01009731F0249788819981249665
:1011900097FFF2CF9E01201B310BF70113821282C1
:1011A000F70131832083020F131FC8010E94050835
:1011B0009C010097A1F6DF91CF911F910F91FF90B5
:1011C000EF90DF90CF9008956F927F928F929F92D1
:1011D000AF92BF92CF92DF92EF92FF920F931F9345
:1011E000CF93DF934C01762E672E80912C01909146
:1011F0002D01843191051CF0AA24BB240AC001965C
:1012000090932D0180932C01C0E0D0E00E944B0808
:101210005E01072D162DF4E0EF2EF12CE00EF11EED
:10122000CCEBD1E0E4E0CE2ED12CCE0CDF1C2DC0D7
:1012300024978A819B812496892B29F5EE16FF0637
:1012400059F1EC15FD05F8F0AF014E195F099E014B
:10125000285B3140220F331F87EC98E08E1B9F0BD9
:101260008217930720F4CE01C40FD51F05C0CF010C
:10127000841B950B8C0F9D1FFC0134975183408379
:101280001382128209C0CE0FDF1FCE010E94050813
:10129000FC01009769F60FC0209769F0CE0160E06D
:1012A00070E0A8010E949217FE0134979382828217
:1012B000F182E0820DC0C1E0D0E0AB2809F4A6CFF6
:1012C00080E490E0672D762D0E94D205C0E0D0E04A
:1012D000CE01DF91CF911F910F91FF90EF90DF90A2
:1012E000CF90BF90AF909F908F907F906F90089518
:1012F000CF93DF93EC01FB01E658F94FE4918E2F79
:1013000090E08C9FB0018D9F700D9C9F700D1124FB
:101310006E5F7F4F80E891E00E94E408FC01009737
:1013200011F0D183C083CF01DF91CF91089568E0A0
:1013300070E00E9478090895FC01329665917491DD
:101340000E94E40808958091B5019091B601FC01D6
:101350002591349102969093B6018093B501C9010D
:101360000895E091B501F091B60184913196F09322
:10137000B601E093B50190E0089587EC98E0909372
:10138000B9018093B8018EEB91E00E949C09909383
:10139000A2018093A1018EE890E00E9497099C0130
:1013A0009093AE018093AD012E5F3F4F3093B40117
:1013B0002093B30122503040E091A101F091A201AD
:1013C0008091A1019091A20193838283E091A10178
:1013D000F091A201358724878AE491E00E94CD062E
:1013E0000895EF92FF920F931F93E091A101F09166
:1013F000A201828193819093A2018093A101E09147
:10140000A101F091A201848195810397BCF0E09144
:10141000A101F091A20184819581069731F7E091B5
:10142000A101F091A201E684F784008911890E944C
:10143000FE0F6E157F0580079107B8F2E091A101BC
:10144000F091A201158214821F910F91FF90EF90ED
:1014500008952F923F924F925F926F927F928F9258
:101460009F92AF92BF92DF92EF92FF920F931F93E2
:10147000CF93DF938091D8008F778093D8000E941C
:10148000BD09789451EB652E51E0752EAA24AA94DB
:10149000BA2C41E0842E912C35E0432E512C24E0CF
:1014A000222E312C8091B7018F5F8093B70181503C
:1014B000992787FD909583709070892B11F40E9475
:1014C000F109E091B501F091B60104910093850A0C
:1014D0003196F093B601E093B501C02FD0E0CC0F68
:1014E000DD1FCE018D57994FFC01259134912F932B
:1014F0003F930895F9C00E9451068091850A90E0BB
:10150000877090700E942F06FC01808191816BC2D0
:101510000091B1011091B2010E94B109BC01C80152
:101520000E94780960C20E949306CBCFE091B1017E
:10153000F091B201EACF32C034C00091B1011091F4
:10154000B2010E947B06080F191FF801828150C06A
:10155000D090B1010E9481067C010E947B068C0123
:101560000E9471060E0D1F1DF801D282AACF0E94A3
:1015700051060E94B1093CC00091B1011091B20125
:101580000E947B06080F191FF80182818093B10128
:10159000F301118296CF0E94510693CF0E94B109A8
:1015A00004C0802F90E08770907061EB71E00E9422
:1015B000390612C208C00E947607FC01009709F4A0
:1015C00080CF808115C00E947607FC01009709F04A
:1015D0009CCF77CF0E9451060E94A30995CF0E940D
:1015E000A3099093B6018093B5015CCF8091B101BE
:1015F000992787FD9095F7C164CF8091B1019091B3
:10160000B201AA2797FDA095BA2F6DC10091B10133
:101610001091B2010E948106080F191FBAC00091F3
:10162000B1011091B2010E94810608231923B1C0B3
:101630000E945106F1C00E945106F3C00E9451065B
:10164000E1C00E94510682E090E0CDC10E945106A7
:1016500083E090E0C8C10E9451063092B20120920E
:10166000B1012FCF0E9451065092B2014092B101B8
:1016700028CF0E947B0640E050E02091B1013091DC
:10168000B2012817390711F041E050E0CA010DC03E
:101690000E9481062091B1013091B201821B930B0F
:1016A00004C08091B1019091B2010E948807FACEE6
:1016B0000E94B1090E942F067C01FC01008111816A
:1016C0000E94B109992787FD9095800F911FF7011E
:1016D00008C00E94B1090E942F06FC0180819181FF
:1016E000019691838083EDCE0E9451060E94B1093C
:1016F00009CF0E945106E091AB01F091AC0105CFFA
:101700000E945106E091AB01F091AC01828193817E
:101710006AC10E945106E091AB01F091AC01848155
:10172000958161C10E945106E091AB01F091AC013D
:101730008681978158C10E94A30920C0FE01EF5104
:10174000FF4F859194911AC00E94B1098C010E94AB
:10175000B1097C010E945106E091B301F091B401FE
:101760003297F093B401E093B301000F111FE01B17
:10177000F10B80819181B7010E94D3050E94CD06B3
:10178000A0CE0091B1011091B2010E948106082BF8
:10179000192B1093B2010093B10193CE0E948106E0
:1017A0000090B10102C0959587950A94E2F71BC19C
:1017B0000E9481062091B1013091B201821B930BEE
:1017C00012C10E9467068091AF019091B0010BC1D8
:1017D0000E9467060E948706FC01208131814281B8
:1017E00053818091AF019091B001A091B101B0916E
:1017F000B201281B390B4A0B5B0B12161306140699
:1018000015062CF49092B2018092B1015ACE2115A6
:1018100031054105510529F0B092B201A092B10104
:1018200050CE1092B2011092B1014BCE0E945106DF
:101830001092AF011092B0011092B1011092B2015A
:1018400076C00E94AB073DCE0E9467068091AF0133
:101850009091B001A091B101B091B2010097A105A2
:10186000B10539F40E9487060E94470680E094E0A3
:1018700095C00E948706FC016081718182819381FD
:101880002091AF013091B0014091B1015091B2016E
:101890000E94BB172093AF013093B0014093B10178
:1018A0005093B20144C00E9451068091850A90E095
:1018B000877090700E942F06FC0180819181A28127
:1018C000B38111C00E9467068091AF019091B00171
:1018D000A091B101B091B201B095A095909581957C
:1018E0009F4FAF4FBF4F8093AF019093B001A09334
:1018F000B101B093B2011BC00E9467060E94870627
:10190000FC0160817181828193812091AF013091CE
:10191000B0014091B1015091B2010E94BB17609398
:10192000AF017093B0018093B1019093B2010E9416
:101930004706C7CD0E9467068091850A90E08770B0
:1019400090700E942F06FC018091AF019091B00130
:10195000A091B101B091B20180839183A283B3833E
:101960003BC00E9451060E94A3090E949C093BC0F3
:1019700033C00E947B06EC01009771F00E94A3091E
:10198000C80FD91F8091B101888326C000C00E9472
:101990007B06EC01009739F482E090E060E070E0B3
:1019A0000E94D2058ECD0E94A309C80FD91F809135
:1019B000B1019091B201998388830EC00E94A3095E
:1019C000FC018091B1019091B2019183808304C0A8
:1019D0000E9451060E9493060E94710672CD0E94D9
:1019E00051060E94A3099093B2018093B10169CD81
:1019F000DF92EF92FF920F931F93CF93DF93E091CB
:101A0000B501F091B60104910093850A3196F093E7
:101A1000B601E093B501C02FD0E0CC0FDD1FCE01A1
:101A20008D57984FFC01259134912F933F93089542
:101A3000F9C00E9451068091850A90E087709070ED
:101A40000E942F06FC01808191819093B2018093C6
:101A5000B10172C20091B1011091B2010E94B109AD
:101A6000BC01C8010E947809F0CF0E94930664C2AD
:101A7000E091B101F091B201E6CF32C034C00091E3
:101A8000B1011091B2010E947B06080F191FF801E5
:101A9000828150C0D090B1010E9481067C010E94D9
:101AA0007B068C010E9471060E0D1F1DF801D2826B
:101AB00043C20E9451060E94B1093CC00091B1018D
:101AC0001091B2010E947B06080F191FF801828154
:101AD0008093B1011092B2012FC20E9451062CC214
:101AE0000E94B10904C0802F90E08770907061EB74
:101AF00071E00E9439060AC208C00E947607FC0104
:101B0000009709F419C2808115C00E947607FC0174
:101B1000009709F098CF10C20E9451060E94A309B5
:101B200091CF0E94A3099093B6018093B501F6C1AD
:101B30008091B101992787FD909587CFFDC1809154
:101B4000B1019091B201AA2797FDA095BA2F65C166
:101B50000091B1011091B2010E948106080F191F76
:101B6000B6C00091B1011091B2010E948106082314
:101B70001923ADC00E945106EBC00E945106EBC074
:101B80000E945106DDC00E94510682E090E05DCFC8
:101B90000E94510683E090E058CF0E94510684E0F5
:101BA00090E053CF0E94510685E090E04ECF0E9416
:101BB0007B0640E050E02091B1013091B20128173E
:101BC000390711F041E050E0CA0108C00E948106C7
:101BD0002091B1013091B201821B930B0E948807C2
:101BE0009DC18091B1019091B201F8CF0E94B109DD
:101BF0000E942F067C01FC01008111810E94B10925
:101C0000992787FD9095800F911FF70108C00E94CA
:101C1000B1090E942F06FC01808191810196918378
:101C200080838AC10E9451060E94B10909CF0E9497
:101C30005106E091AB01F091AC0105CF0E94510635
:101C4000E091AB01F091AC0182819381FECE0E94C4
:101C50005106E091AB01F091AC0184819581F5CE04
:101C60000E945106E091AB01F091AC018681978111
:101C7000ECCE0E94A30920C0FE01EF51FF4F8591D9
:101C800094911AC00E94B1098C010E94B1097C0193
:101C90000E945106E091B301F091B4013297F093A4
:101CA000B401E093B301000F111FE01BF10B808121
:101CB0009181B7010E94D3050E94CD063DC10091DC
:101CC000B1011091B2010E948106082B192B1093CB
:101CD000B2010093B10130C10E9481060090B101B0
:101CE00002C0959587950A94E2F7AFCE0E948106CF
:101CF0002091B1013091B201821B930BA6CE0E94BC
:101D000067068091AF019091B0019FCE0E94670657
:101D10000E948706FC01208131814281538180919C
:101D2000AF019091B001A091B101B091B201281B17
:101D3000390B4A0B5B0B12161306140615061CF41E
:101D400081E090E082CE211531054105510519F061
:101D50008FEF9FEF7ACE1092B2011092B101ECC0DA
:101D60000E9451061092AF011092B0011092B10181
:101D70001092B20176C00E94AB07DEC00E946706D7
:101D80008091AF019091B001A091B101B091B201E9
:101D90000097A105B10539F40E9487060E94470605
:101DA00080E094E095C00E948706FC01608171810B
:101DB000828193812091AF013091B0014091B101B6
:101DC0005091B2010E94BB172093AF013093B00134
:101DD0004093B1015093B20144C00E9451068091DA
:101DE000850A90E0877090700E942F06FC01808128
:101DF0009181A281B38111C00E9467068091AF01D9
:101E00009091B001A091B101B091B201B095A095AF
:101E1000909581959F4FAF4FBF4F8093AF019093A7
:101E2000B001A093B101B093B2011BC00E9467063C
:101E30000E948706FC0160817181828193812091DB
:101E4000AF013091B0014091B1015091B2010E94B7
:101E5000BB176093AF017093B0018093B101909371
:101E6000B2010E94470668C00E9467068091850AF9
:101E700090E0877090700E942F06FC018091AF0166
:101E80009091B001A091B101B091B2018083918392
:101E9000A283B3833BC00E9451060E94A3090E9403
:101EA0009C09D3CD33C00E947B06EC01009771F0F2
:101EB0000E94A309C80FD91F8091B101888326C051
:101EC00000C00E947B06EC01009739F482E090E0AC
:101ED00060E070E00E94D2052FC00E94A309C80FE5
:101EE000D91F8091B1019091B201998388830EC06E
:101EF0000E94A309FC018091B1019091B2019183EC
:101F0000808304C00E9451060E9493060E947106BD
:101F100013C00E9451060E94A30997CD8091B7017A
:101F20008F5F8093B701992787FD9095837090709C
:101F3000892B11F40E94F109DF91CF911F910F912C
:101F4000FF90EF90DF9008950E946F1081E991E07B
:101F50000E94B01308950E94510680E090E060E076
:101F600070E00E94A40F0E94710608951F920F92C4
:101F70000FB60F9211242F933F938F939F93AF939C
:101F8000BF938091320190913301A0913401B091BF
:101F90003501309136010196A11DB11D232F2D5F12
:101FA0002D3720F02D570196A11DB11D209336012C
:101FB0008093320190933301A0933401B0933501A3
:101FC00080912E0190912F01A0913001B0913101AB
:101FD0000196A11DB11D80932E0190932F01A09316
:101FE0003001B0933101BF91AF919F918F913F919B
:101FF0002F910F900FBE0F901F9018958FB7F894E8
:1020000020913201309133014091340150913501DA
:102010008FBFB901CA0108959B01AC017FB7F89445
:1020200080912E0190912F01A0913001B09131014A
:1020300066B5A89B05C06F3F19F00196A11DB11DA3
:102040007FBFBA2FA92F982F8827860F911DA11D1A
:10205000B11D62E0880F991FAA1FBB1F6A95D1F7B7
:10206000BC012DC0FFB7F89480912E0190912F01F3
:10207000A0913001B0913101E6B5A89B05C0EF3FBA
:1020800019F00196A11DB11DFFBFBA2FA92F982FDE
:1020900088278E0F911DA11DB11DE2E0880F991FA9
:1020A000AA1FBB1FEA95D1F7861B970B885E93404A
:1020B000C8F2215030404040504068517C4F2115BB
:1020C00031054105510571F60895019739F0880FE2
:1020D000991F880F991F02970197F1F70895789437
:1020E00084B5826084BD84B5816084BD85B582601D
:1020F00085BD85B5816085BDEEE6F0E080818160BB
:102100008083E1E8F0E010828081826080838081BA
:1021100081608083E0E8F0E0808181608083E1E994
:10212000F0E0808182608083808181608083E0E94B
:10213000F0E0808181608083E1ECF0E08081846068
:102140008083808182608083808181608083E3ECF2
:10215000F0E0808181608083E0ECF0E0808182604B
:102160008083E2ECF0E0808181608083EAE7F0E048
:1021700080818460808380818260808380818160AF
:1021800080838081806880830895823108F0825145
:10219000E82FF0E0E750F74FE49120917B008E2F7D
:1021A00086958695869590E08170907035E0880FD1
:1021B000991F3A95E1F72F7D282B20937B00E7703C
:1021C000809100018295880F880F807C8E2B8093F0
:1021D0007C0080917A00806480937A0080917A00FC
:1021E00086FDFCCF2091780040917900942F80E00B
:1021F00030E0282B392BC9010895CF93DF93482F66
:1022000050E0CA018553974FFC0134914355574F15
:10221000FA018491882369F190E0880F991FFC01ED
:10222000ED57F74FA591B491FC01EF56F74FC591CB
:10223000D491662351F42FB7F8948C91932F9095F5
:1022400089238C93888189230BC0623061F42FB776
:10225000F8948C91932F909589238C938881832B6C
:1022600088832FBF06C09FB7F8948C91832B8C93E3
:102270009FBFDF91CF910895883071F1893068F464
:10228000823031F1833020F4813009F042C01DC02A
:10229000833089F08430E9F512C08B3059F18C30ED
:1022A00028F48930E9F08A30A1F51EC08C3031F174
:1022B0008E3079F529C0809180008F7703C080919E
:1022C00080008F7D80938000089584B58F7702C051
:1022D00084B58F7D84BD0895809190008F7707C06D
:1022E000809190008F7D03C080919000877F8093C4
:1022F000900008958091C0008F7703C08091C00046
:102300008F7D8093C00008958091C200877F809365
:10231000C2000895FF920F931F93F62E482F50E0AE
:10232000CA018751974FFC012491CA018553974FE9
:10233000FC0114914355574FFA0104910023C9F051
:10234000222319F0822F0E943C11E02FF0E0EE0FC3
:10235000FF1FEF56F74FA591B4919FB7F894FF2058
:1023600021F48C911095812302C08C91812B8C9348
:102370009FBF1F910F91FF90089520917701309199
:1023800078018091790190917A01281B390B2F7384
:102390003070C901089520917701309178018091C2
:1023A000790190917A012817390719F42FEF3FEF3F
:1023B00009C0E0917901F0917A01E95CFE4F8081DA
:1023C000282F30E0C90108952091770130917801DC
:1023D0008091790190917A012817390719F42FEF2C
:1023E0003FEF13C0E0917901F0917A01E95CFE4F73
:1023F00020818091790190917A0101968F7390707C
:1024000090937A018093790130E0C9010895109288
:102410007E0110927D0188EE93E0A0E0B0E0809311
:102420007F0190938001A0938101B09382018FE09E
:1024300091E090937C0180937B0108950F931F930B
:10244000DF93CF930F92CDB7DEB78C016983809174
:102450000801882369F083E0BE016F5F7F4F41E090
:1024600050E00E94CE131816190614F49C0107C000
:1024700081E090E0F8019383828320E030E0C9019D
:102480000F90CF91DF911F910F91089583E00E94EB
:10249000A5130895CF93DF9312C082E00E943013FA
:1024A0002FEF8F3F9207C9F0E0917701F09178010B
:1024B000E95CFE4F8083D0937801C0937701C0918F
:1024C0007701D09178012196CF73D07080917901F6
:1024D00090917A01C817D90701F7DF91CF9108953C
:1024E000FC0180818E5F808380E865E079E042E4D2
:1024F00050E00E9449130895FC0181819081913A36
:1025000059F4813209F04CC080E061E071E047E0AD
:1025100050E00E94491342C0913209F041C080321C
:1025200039F481E091E067E070E00E948D1336C0DD
:10253000823209F035C082818093080180910101C7
:1025400090910201A0910301B0910401805B94403D
:10255000A040B04019F58091080180FD12C087E7C6
:1025600097E790930108809300082BE088E190E0C2
:102570000FB6F894A895809360000FBE209360007A
:102580000DC088E10FB6F89480936000109260004F
:102590000FBEA895109201081092000881E00895DE
:1025A00080E00895CF92DF92EF92FF920F931F93F6
:1025B000CF93DF937C016B018A01C0E0D0E00FC0B4
:1025C000D6016D916D01D701ED91FC910190F081E3
:1025D000E02DC7010995C80FD91F01501040011502
:1025E000110571F7CE01DF91CF911F910F91FF90EF
:1025F000EF90DF90CF900895282F80918B01882352
:10260000C1F057FF1AC015C0289890938A01809195
:10261000F1008193E217F307B9F74115510539F03D
:102620008091F200882319F48BE68093E800AFBF15
:1026300002C04FEF5FEFCA010895AFB7F89427705B
:102640002093E9008091F200282F30E0241735070D
:102650000CF4A901FB019B01240F311D94E6DACF94
:10266000DF93CF930F92CDB7DEB7BE016F5F7F4F81
:1026700041E050E00E94FC12019719F02FEF3FEF6C
:1026800003C08981282F30E0C9010F90CF91DF91DD
:102690000895FF920F931F93F82E142F052F40914A
:1026A0008E0150918F01212F302FC901DC01FB01D8
:1026B0006EEF29C0F7FE02C0949101C09081209175
:1026C0008C0130918D0124173507ACF48091E8001E
:1026D0008570E1F38091E80082FF03C02FEF3FEFA8
:1026E00017C09093F100C90101968F739070892BE8
:1026F00011F46093E8002F5F3F4F30938D012093DA
:102700008C01119731961097A9F6812F902F9C017B
:10271000C9011F910F91FF9008959C018091E800DD
:1027200082FFFCCFF901260F311D03C08091F1001B
:102730008193E217F307D1F7289884E680938A0102
:102740008BEF8093E800CB0108958093E90080919E
:10275000F200882319F08AE38093E8000895089531
:1027600010928B0181E08093D70080EA8093D8009B
:1027700082E189BD09B400FEFDCF61E070E080E038
:1027800090E00E940C1080E98093D8008CE0809348
:10279000E2001092E000559A209A08955F926F929D
:1027A0007F928F929F92AF92BF92CF92DF92EF92E1
:1027B000FF920F931F93CF93DF93E82E842E752EF5
:1027C00080918B01882371F18B01242F352FC90152
:1027D000EC017AEFF72E67E0962E9E2050E4552EFE
:1027E0008E2D90E040E2A42EB12CA822B9223AE32B
:1027F000632E20E4C22ED12CC822D92258C09FB704
:10280000F8949092E9008091E80085FD02C020E0F4
:1028100004C08091F200252D281B9FBF222361F464
:10282000FA9419F42FEF3FEF4DC061E070E080E0C3
:1028300090E00E940C103BC0822F90E0C817D9078F
:102840000CF42C2FC21BD1094FB7F8949092E900D9
:10285000A114B10421F406C01092F10021502223EA
:10286000D9F719C0E7FC03C0F801922F10C0C801C6
:10287000322F06C0FC010196E491E093F100315043
:102880003323C1F706C081918093F10091509923C1
:10289000D1F7020F111D8091E80085FF05C0209738
:1028A00029F4C114D10411F06092E8004FBF2097C1
:1028B00009F0A5CF5D9884E680938901282D372DF6
:1028C000C9019C01C901DF91CF911F910F91FF9028
:1028D000EF90DF90CF90BF90AF909F908F907F90C0
:1028E0006F905F9008951F920F920FB60F92112470
:1028F0002F933F934F935F936F937F938F939F9308
:10290000AF93BF93EF93FF938091E1001092E100AA
:10291000982F83FF0FC01092E90081E08093EB00B5
:102920001092EC0082E38093ED0010928B0188E01E
:102930008093F00092FF34C083E08093E90080919F
:10294000F200882319F08AE38093E8008FB7F894A7
:1029500092E09093E9009091F2008FBF992321F0CB
:102960008BE791E00E944A1280918901882351F0FF
:102970008091890181508093890180918901882308
:1029800009F45D9A80918A01882351F080918A012F
:10299000815080938A0180918A01882309F4289AC2
:1029A000FF91EF91BF91AF919F918F917F916F9127
:1029B0005F914F913F912F910F900FBE0F901F90FD
:1029C00018950F931F93DF93CF930F92CDB7DEB778
:1029D00019828E010F5F1F4FC8010E947012C8013B
:1029E0000E947A17898190E00F90CF91DF911F911B
:1029F0000F9108951F920F920FB60F921124EF922C
:102A0000FF921F932F933F934F935F936F937F9307
:102A10008F939F93AF93BF93EF93FF93DF93CF93E6
:102A2000CDB7DEB76197DEBFCDBF1092E9008091D0
:102A3000E80083FF0FC1FE0131969E01275F3F4FE3
:102A400003C08091F1008193E217F307D1F7289832
:102A500084E680938A0182EF8093E800998197FF52
:102A600005C08091E80080FFFCCF03C08EEF80930B
:102A7000E800292F30E0C90180769070892B09F099
:102A8000C2C08A81882329F41092F1001092F100CB
:102A9000D6C0813009F4D3C0833009F4D0C085306A
:102AA00049F48091E80080FFFCCF8B81806880939F
:102AB000E300C5C0863009F07CC01C81EF80F8843B
:102AC0001230C1F51092E90010928D0110928C0124
:102AD00010928F0110928E010E94E11499E0FE0184
:102AE0003996DF01292F1D922A95E9F799871A87D0
:102AF00091E09E8790E8988B9AEF998B20918C01BA
:102B000030918D01275F3F4F3C872B878D87109237
:102B1000E90010928D0110928C01F0928F01E092E9
:102B20008E0180E0BF0149E050E00E9449130E94FD
:102B3000E11485C01092E90010928D0110928C0171
:102B4000F0928F01E0928E01123241F482E290E025
:102B50000E947217892B09F476C071C0113079F484
:102B600088E0E816F10419F481E0809390018091E7
:102B70009001882309F06BC0E5E8F9E013C0133039
:102B800009F061C08B81882319F4E7E4F9E00AC0F9
:102B9000823019F4EBE4F9E005C0813009F053C04C
:102BA000EDE6F9E0449180E8BF0150E00E9449134E
:102BB00046C0873009F447C0883021F481E0809313
:102BC000F1003DC08930D9F523703070232BD9F541
:102BD000EAEAF9E091E031E026E39093E9003093EE
:102BE000EB0084918093EC002093ED009F5F319681
:102BF000953099F78EE78093EA001092EA008B8176
:102C000080938B011CC08F8198851092E9001092EF
:102C10008D0110928C0190938F0180938E018D8194
:102C2000882329F4CE0101960E947C1206C08230CE
:102C300051F4CE0101960E944316882321F08EEFB5
:102C40008093E80007C081E28093EB0003C0E7E9CE
:102C5000F9E0A8CF6196DEBFCDBFCF91DF91FF91A4
:102C6000EF91BF91AF919F918F917F916F915F9104
:102C70004F913F912F911F91FF90EF900F900FBEBA
:102C80000F901F901895FC0191818081813A31F459
:102C9000913089F080E0933089F40DC0813269F47D
:102CA0009B3021F482818093090105C09A3029F478
:102CB000828180930A0181E0089580E00895EF9277
:102CC000FF920F931F938C01E62EDC01ED91FC9196
:102CD0000480F581E02D0995F82ED801ED91FC9145
:102CE0000680F781E02DC8016E2D09958F2D90E0AB
:102CF0001F910F91FF90EF90089510929201109202
:102D000096011092950181E291E090939401809355
:102D100093010895EF92FF920F931F93DF93CF9348
:102D20000F92CDB7DEB789838B017A0184E0BE01B3
:102D30006F5F7F4F41E050E00E94CE1384E4B80102
:102D4000A7010E94CE130F90CF91DF911F910F9199
:102D5000FF90EF90089582E048E050E00E948A16CC
:102D60000895FC011682178210861186128613863A
:102D700014823496BF010E94AB160895DC016838B6
:102D800010F0685829C0E62FF0E067FF13C0E05844
:102D9000F04081E090E002C0880F991FEA95E2F7C9
:102DA000809514962C911497282314962C9314979D
:102DB00060E012C0E45DF54F6491662319F420E0F1
:102DC00030E01DC067FF08C014968C9114978D7F6A
:102DD00014968C9314976F77FD0190E0662321F091
:102DE0008681861709F416829F5F31969630B1F777
:102DF000CD011496BD010E94AB1621E030E0C9015F
:102E00000895CF93DF93DC01683810F0685825C02F
:102E1000E62FF0E067FF12C0E058F04081E090E05C
:102E200002C0880F991FEA95E2F714962C91149727
:102E3000282B14962C93149760E00FC0E45DF54F97
:102E400064916623D9F167FF08C014968C9114979A
:102E5000826014968C9314976F7716968C911697C0
:102E60008617A9F117968C911797861781F11896F6
:102E70008C911897861759F119968C911997861786
:102E800031F11A968C911A97861709F11B968C913D
:102E90001B978617E1F0ED01E0E0F0E09E2F8E81B8
:102EA000882321F4EA0FFB1F668306C09F5F3196DB
:102EB0002196E630F10591F7963049F481E090E0F3
:102EC00013969C938E93129720E030E007C0CD01BB
:102ED0001496BD010E94AB1621E030E0C901DF91DC
:102EE000CF91089580E86EEA79E045E650E00E94CF
:102EF00049130895FC0180818F5F808380E863E13E
:102F00007AE049E150E00E9449130895F8940C9446
:102F1000DC17FB01DC0102C005900D9241505040CE
:102F2000D8F70895DC0101C06D9341505040E0F79F
:102F30000895A1E21A2EAA1BBB1BFD010DC0AA1FFA
:102F4000BB1FEE1FFF1FA217B307E407F50720F012
:102F5000A21BB30BE40BF50B661F771F881F991F8D
:102F60001A9469F760957095809590959B01AC01D6
:102F7000BD01CF01089597FB092E05260ED057FD00
:102F800004D0D7DF0AD0001C38F450954095309516
:102F900021953F4F4F4F5F4F0895F6F790958095DD
:102FA000709561957F4F8F4F9F4F0895EE0FFF1FD4
:0C2FB0000590F491E02D0994F894FFCFF7
:102FBC000100E10000000000000101000000001E03
:102FCC0012D212BD11E411CB1146124A12000000AC
:0C2FDC00005F16D2120117BE16B11600DD
:00000001FF
