:100000000C944E050C9476050C9476050C947605AC
:100010000C9476050C9476050C9476050C94760574
:100020000C9476050C9476050C9442140C94C91427
:100030000C9476050C9476050C9476050C94760554
:100040000C9476050C9476050C9476050C94760544
:100050000C9476050C9476050C9476050C94BD0FE3
:100060000C9476050C9476050C9476050C94760524
:100070000C9476050C9476050C9476050C94760514
:100080000C9476050C9476050C9476050C94760504
:100090000C9476050C9476050C9476050C947605F4
:1000A0000C9476050C9476050C94760510004F752B
:1000B000744F664D656D6F72794572726F720F0085
:1000C00068656C6C6F2C20776F726C64204121F432
:1000D00001000050C34F0156015601760100000097
:1000E00000000000000406F6054F04ED057E012720
:1000F00005600427023D02490178026101BD010F3C
:10010000021B02B601EB0134069702FF0559061BDC
:10011000066C0556065C0653064B06DD04B4042641
:100120000600042D050A0621034C01EA03F503D657
:1001300001FB01D705710157045402360497048767
:10014000013805CD0154050000FFB20F0501011073
:10015000090708545201390F6900027E0A020000A3
:10016000000600023804386900037738317B02004A
:100170007E040001383F8201060001037101030083
:10018000017E0000000000060101385104004D0806
:1001900042B501383931520200383AA501315202D4
:1001A000003954950131315202005202007B0200A5
:1001B000384D080C777E03000053A1013FFFF00784
:1001C0008201170001028701820100000004000182
:1001D00038520000446B06000238520000654E6B36
:1001E000820102000205D60104CD0102000068D799
:1001F0000568FB01685402680A067E050000751652
:10020000024F45AC000D7D9F017E8201000000067B
:10021000000238310E7E220206000006000238314C
:100220000B7E7601060000050000539D014D105C19
:10023000690206539D0145BE006901077E07000063
:10024000539D015A5B690208539D011337CF00711A
:100250006902097E0A00007507054F4D084D095EC9
:100260005F4D064D070A7D9D015A7CA5017E8201E6
:1002700000000082010000001600073805384D0814
:1002800076017B0300385B65606667630463056322
:10029000065A5A5A5A127E13000D386678000038F2
:1002A00067780100386304780200385203005A630B
:1002B000054C385203005B63064C385203005C6304
:1002C000074C385203005D63084C385203005E63EC
:1002D000094C385203005F630A4C385203004D0644
:1002E000630B4C385203004D07630C4C3850000030
:1002F0005B033850010060420003385001005B038B
:10030000385002005B0365321203385A78050054F6
:100310001803384D10780500384D105B5A69030AF0
:100320007E090004665B3E3503384F5005004D08DA
:100330006A557805003866780900385A780A0067E7
:10034000325303665B3D5303384F5005005E6A55D8
:1003500078050046D30000385000005A013850029A
:10036000005A013850010060427103385001005AB0
:1003700001385005004D1059359E03385D69010B59
:100380007F941100385D69010B7F941100385D691D
:10039000010B7F960000385C69010B54C403384D93
:1003A00020385005006A55027F941100384D2038DE
:1003B0005005006A55027F960000384D20385005E0
:1003C000006A5502384D20385005006A5502385EE3
:1003D0007806003869000C3869000D385C78070031
:1003E000385E385007006A55027E0900033865669A
:1003F0005A69030A7E050001385B027FD007007E40
:100400000B01035E76014F5A5A4C4F5B4D404C4FE7
:100410005C4D144C4F5D4D544C3B663850090034D4
:100420002A04385009005B6E554A384D80653366A2
:1004300048586A55027E060001384F5006005E6A31
:1004400055780600384D08385006006A55027E0778
:10045000000238655A067E07000238655B065B6B52
:1004600008000338500000660138500100604277F0
:1004700004385001005A01385005004D1059328996
:1004800004386569010F54960438655E6C5569013E
:100490000B386569010B7E050001385002005A01D6
:1004A0005B00385002005B015B00385002005A01CB
:1004B0004D64007E0801025A4A665E4BD8043852E9
:1004C000030066485B0338520300664865666C5B50
:1004D000595501620254B904386900107E080102BE
:1004E0005A4A664D084B02053852030066485B03C2
:1004F00038520300664865666C5B595501620254C8
:10050000E204386900107EDF050B00090A210306AA
:10051000EA030DF5030C36041097040800040BB42D
:10052000040FDD040E570404000138047E060002A7
:1005300038655569010E777E0801025A4A663169AD
:1005400000044B53053831666901056901116202E7
:10055000543D057E090003414070436605384D2D2A
:1005600069011141724938414D0A167E0E02044D4F
:1005700020760147045A6D05414070358505384D98
:10058000306901117E41407036A0053C046305626C
:1005900005416757736F554C41675771495485053D
:1005A000630536D605383C0463055B6E484D0A4B3F
:1005B000BF054D303C0463055B6E485854CC054D77
:1005C000413C0463055B6E48584D0A6E5669011143
:1005D0006105FF54A0057E0300005A7CA7017E82BE
:1005E00001000003112D0509540507380506000216
:1005F00064556555197E06000264556555177E04DD
:100600000000147404000164187E040000752C06B8
:100610004F157DA3017E8201000000050001381105
:1006200038607A0C007E050002651A6B46060E00E3
:10063000010E26060500013805387FE8037A080018
:10064000385B790A007EDF050C0000FF7805820127
:10065000000000FFB205FFA005FF9105FF850582A0
:10066000010000000201020202040204029A0B9A35
:100670000B9A0B9A0B9A0B9A0B9A0B9A0B9A0B9A52
:100680000B9A0B9A0B9A0B9A0B9A0B9A0B9A0B9A42
:100690000B9A0B9A0B9A0B9A0B9A0B9A0B9A0B9A32
:1006A0000B9A0B9A0B9A0B9A0B9A0B9A0B9A0B9A22
:1006B0000B9A0B9A0B9A0B9A0B9A0B9A0B9A0B9A12
:1006C0000B9A0B9A0B9A0B9A0B9A0B9A0B9A0B722A
:1006D0000A4D0B720A440B4D0B4D0B200C720A9302
:1006E0000A350B930A710A440B440B8A0A120C5206
:1006F0000C440B4D0B8D0A1D0C1D0C920A940A998B
:100700000CCD0A440B9F0AAE0AB30AC70AD70ADF08
:100710000AD60AE60AEB0AF20AF80AF90A020B0BF1
:100720000B170B1A0B1D0B220B270B2E0B140B5444
:100730000B650B700B750B7C0B850B8E0B970BA051
:100740000BBD0B8A0ACA0BCA0AD40BDD0BE40B23C0
:100750000C610C7B0CC20AB00C7F0AB70CB80CC53C
:100760000CC60CC60CDD0CDD0CE70CEE0C400E408C
:100770000E400E400E400E400E400E400E400E4009
:100780000E400E400E400E400E400E400E400E40F9
:100790000E400E400E400E400E400E400E400E40E9
:1007A0000E400E400E400E400E400E400E400E40D9
:1007B0000E400E400E400E400E400E400E400E40C9
:1007C0000E400E400E400E400E400E400E400E18E1
:1007D0000DF50D180DEA0DF50DF50DC20E180D3DB8
:1007E0000DDB0D3D0D170DEA0DEA0D340DB40EF4C1
:1007F0000EEA0DF50D370DBF0EBF0E3C0D3E0D3B45
:100800000F770DEA0D490D580D5D0D710D810D89A4
:100810000D800D900D950D9C0DA20DA30DAC0DB589
:100820000DC10DC40DC70DCC0DD10DD60DBE0DFAE9
:100830000D0B0E160E1B0E220E2B0E340E3D0E4609
:100840000E630E340D700E740D7A0E830E8A0EC573
:100850000E030F1D0F6C0D520F290D590F5A0F6704
:100860000F680F680F7F0F7F0F890F900F00000038
:1008700000240027002A002D003000000000002581
:100880000028002B002E003100000000002300266D
:100890000029002C002F00040404040403040502B2
:1008A000020202040302020202060606060606040B
:1008B000040202020404080201104080401020409B
:1008C0008040800802040180402010020110801046
:1008D0002040400000000200080E00000304010058
:1008E0000B0000070605040100080A0B0C0D09089F
:1008F0000B000202020100090400000102020000D4
:100900000524001001052401010104240206052428
:100910000600010705810310004009040100020AD6
:1009200000000007050202400000070583024000A6
:100930000004030904220341007200640075006989
:10094000006E006F0020004C0065006F006E0061BB
:1009500000720064006F00180341007200640075AB
:100960000069006E006F0020004C004C0043001234
:100970000100020000004041233680000101020016
:1009800001120100020200004041233680000101F3
:1009900002000100C18081C105010902A101090114
:1009A000A1008501050919012903150025019503F9
:1009B0007501810295017505810305010930093131
:1009C00009381581257F750895038106C0C005018A
:1009D0000906A1018502050719E029E7150025018F
:1009E00075019508810295017508810395067508C2
:1009F000150025650507190029658100C009040255
:100A00000001030000000921010100012265000727
:100A100005840340000100000000000000002A2BB4
:100A2000280000000000000000000000000000009E
:100A30000000000000002C9EB4A0A1A2A434A6A730
:100A4000A5AE362D3738271E1F2021222324252628
:100A5000B333B62EB7B89F8485868788898A8B8CF6
:100A60008D8E8F909192939495969798999A9B9C3E
:100A70009D2F3130A3AD350405060708090A0B0C7C
:100A80000D0E0F101112131415161718191A1B1C1E
:100A90001DAFB1B0B500D6117E134C1611241FBE88
:100AA000CFEFDAE0DEBFCDBF11E0A0E0B1E0EAE5D4
:100AB000FFE202C005900D92AA32B107D9F71AE001
:100AC000AAE2B1E001C01D92A438B107E1F71AE033
:100AD000CCE9DAE004C02297FE010E94A717C639CC
:100AE000D107C9F70E94C4050C9455170C94000057
:100AF0000E9448060E945206FC0189E791E060814D
:100B00000E94ED118093AF0108950E9448060E9453
:100B10005206FC01808191810E946C100E9468063F
:100B200008950E9448060E9405106093AD017093DD
:100B3000AE018093AF019093B0010E943E060895EC
:100B40001F930E9448060E945206FC0110810E94D9
:100B50005206FC018081612F0E9459110E94680693
:100B60001F9108951F930E9448060E945206FC019F
:100B700010810E945206FC018081612F0E94CC10DE
:100B80000E9468061F9108950E94200A80E090E06C
:100B90000895FFCF0F931F93CF93DF93DC018B0159
:100BA000149712964D915C911397149681E0A63B91
:100BB000B80720F0EAE0AD37BE0730F142E851E077
:100BC00023C09B01220F331F260F371FF9013596D3
:100BD000E40FF51FE4918E2F90E08017910761F4E8
:100BE000F9013696E40FF51F25913491C901DF9183
:100BF000CF911F910F9108956F5F7F4F6C177D0705
:100C000004F3FA01459154914115510559F04C5F97
:100C10005F4F60E070E0FA01849144505040C82F6B
:100C2000D0E0ECCFAB2B19F0A0E0B0E0BFCFFFCF0E
:100C30002091B1013091B2012E5F3F4F3093B2014C
:100C40002093B10122503040C9010895880F991FA7
:100C50002091A9013091AA01280F391FC9010895D7
:100C6000DB01880F991FE091A901F091AA01E80F1B
:100C7000F91F8D919C919183808308950E9418069D
:100C8000FC018091AD019091AE0191838083089524
:100C90000E941806FC018091AF019091B0019183F0
:100CA000808308952091B1013091B20122503040EB
:100CB0003093B2012093B101C90108950E945206F8
:100CC000FC01808191819093AE018093AD010895E4
:100CD0000E945206FC01808191819093B001809323
:100CE000AF0108950E945206FC0180819181089510
:100CF0000E945206FC018081918108952091B101EA
:100D00003091B201245030403093B2012093B101B0
:100D1000C9010895A091B101B091B201E091AB0178
:100D2000F091AC019F012A5F3F4F8091A901909102
:100D3000AA018217930791F4828193819093AA016B
:100D40008093A901848195819093AC018093AB013C
:100D5000E091A101F091A201958784878091A9017A
:100D60009091AA019093B2018093B1019E918E91CE
:100D70009093B4018093B301FD019291829190937D
:100D8000AA018093A9010895AF92BF92CF92DF92FA
:100D9000EF92FF920F931F93CF93DF938C01FC018F
:100DA00084918F3F41F4C8010196FC012591349153
:100DB000F901099587C0C82EDD240E5F1F4FF80189
:100DC000849102501040A82EBB240E944806750151
:100DD000EE0CFF1CC091B101D091B201CE19DF0918
:100DE000E091AB01F091AC01808191810196880F77
:100DF000991FE80FF91FC601880F991F8C0F9D1FBF
:100E00008E179F07A0F1C60102960E948E09DC0191
:100E1000009709F4FFCF1396DC93CE93129780913D
:100E2000AB019091AC0115969C938E931497FD01A4
:100E300020E030E006C089919991958384832F5FEB
:100E40003F4F32962A153B05B4F3B093AC01A09303
:100E5000AB01E091A101F091A201B587A487ED015A
:100E60002696EC0EFD1EF092B201E092B1010F5FEA
:100E70001F4FF801849190E00196880F991FE0912F
:100E8000B101F091B201E80FF91FF093B201E093C4
:100E9000B10132978091A9019091AA019183808339
:100EA0008091B3019091B4019093B0018093AF0110
:100EB000D093AA01C093A9010E5F1F4F1093B401F4
:100EC0000093B301DF91CF911F910F91FF90EF90AD
:100ED000DF90CF90BF90AF900895CF93DF93C091F4
:100EE000AF01D091B001209709F4FFCF0E949A0979
:100EF0009E01280F391FC901DF91CF91089518165F
:100F0000190614F421E005C0892B11F422E001C078
:100F100024E0332727FD30958091830A90E0282331
:100F20003923232B19F00E949A0905C08091B3013F
:100F30009091B40102969093B4018093B3010E9402
:100F400068060895EF92FF920F931F93CF93DF935C
:100F50000E949A09F82EE92E1091830A17700E94B8
:100F60004806153009F5EF2DFE2D05911491B801B5
:100F7000685F7F4F80EE91E00E94DB08EC010097F4
:100F800041F10696998388830A5F1F4F1B830A836A
:100F9000045010406F2D7E2DA8010E945817D09349
:100FA000B001C093AF0115C0163031F4E8E6F6E0A9
:100FB000E4918FEA91E007C0E12FF0E0EE59F94F9C
:100FC000E4918DEA91E06F2D7E2D4E2F50E00E942E
:100FD0005817DF91CF911F910F91FF90EF900895D7
:100FE0000E9472062091AF013091B001FC0135835F
:100FF00024830E94E8090895FC01349720813181FF
:101000003F77C9010895CF92DF92EF92FF920F933D
:101010001F93CF93DF937C018AEBE81681E0F806FB
:10102000F0F0E7E8EE16EAE0FE06C8F48CEFC82E12
:101030008FEFD82ECE0CDF1CF6010081118117FD39
:101040000EC0CAEBD1E002C0C80FD91FCE010E946A
:10105000FC07009721F0EC16FD06B1F70CC020E06C
:1010600030E0C901DF91CF911F910F91FF90EF9078
:10107000DF90CF9008951068F6011183008321E07E
:1010800030E0EFCFCF92DF92EF92FF920F931F935A
:10109000CF93DF93E091AB01F091AC013097A1F0D9
:1010A0004091B1015091B201208131812F5F3F4FBA
:1010B000220F331F2E0F3F1F241B350BCA0160E088
:1010C00070E0A9010E946117CDE9D1E08991999161
:1010D0000E94030881E0C73AD807C1F78091AF01A9
:1010E0009091B0010E9403080AEB11E026C0045061
:1010F0001040F801808191810C5F1F4F97FF19C04C
:10110000EE24FF2411C0F801EE0DFF1D2081318176
:10111000C901EC010E940308892B19F0C017D107FF
:1011200058F00894E11CF11CC70105968C159D052B
:1011300050F3E801CC0DDD1D8E01C8010E94FC07B3
:101140006C010097A1F60AEB11E026C09CEFE92E96
:101150009FEFF92EE00EF11EF7018081918197FD3E
:1011600016C0E80102C0C20FD31FCE010E94FC07C7
:101170009C01009731F0249788819981249697FFEC
:10118000F2CF9E01201B310BF70113821282F7016F
:1011900031832083020F131FC8010E94FC079C01AA
:1011A0000097A1F6DF91CF911F910F91FF90EF90E3
:1011B000DF90CF9008956F927F928F929F92AF921F
:1011C000BF92CF92DF92EF92FF920F931F93CF9334
:1011D000DF934C01762E672E80912A0190912B018E
:1011E000843191051CF0AA24BB240AC00196909377
:1011F0002B0180932A01C0E0D0E00E9442085E01EA
:10120000072D162DF4E0EF2EF12CE00EF11ECAEBA7
:10121000D1E0E4E0CE2ED12CCE0CDF1C2DC02497E3
:101220008A819B812496892B29F5EE16FF0659F1B8
:10123000EC15FD05F8F0AF014E195F099E01265B24
:101240003140220F331F87EC98E08E1B9F0B8217D3
:10125000930720F4CE01C40FD51F05C0CF01841B16
:10126000950B8C0F9D1FFC01349751834083138293
:10127000128209C0CE0FDF1FCE010E94FC07FC01C5
:10128000009769F60FC0209769F0CE0160E070E02A
:10129000A8010E946117FE01349793828282F18235
:1012A000E0820DC0C1E0D0E0AB2809F4A6CF80E415
:1012B00090E0672D762D0E94C905C0E0D0E0CE01F8
:1012C000DF91CF911F910F91FF90EF90DF90CF9022
:1012D000BF90AF909F908F907F906F900895CF9325
:1012E000DF93EC01FB01EC59F94FE4918E2F90E074
:1012F0008C9FB0018D9F700D9C9F700D11246E5FAF
:101300007F4F82E891E00E94DB08FC01009711F01A
:10131000D183C083CF01DF91CF91089568E070E061
:101320000E946F090895FC013296659174910E94A4
:10133000DB0808958091B3019091B401FC012591DF
:10134000349102969093B4018093B301C90108953A
:10135000E091B301F091B40184913196F093B4011E
:10136000E093B30190E0089587EC98E09093B70183
:101370008093B60180EC91E00E9493099093A201C2
:101380008093A1018EE890E00E948E099C019093C9
:10139000AC018093AB012E5F3F4F3093B20120939D
:1013A000B10122503040E091A101F091A201809161
:1013B000A1019091A20193838283E091A101F09118
:1013C000A201358724878CE491E00E94C406089529
:1013D000EF92FF920F931F93E091A101F091A20170
:1013E000828193819093A2018093A101E091A10158
:1013F000F091A201848195810397BCF0E091A10155
:10140000F091A20184819581069731F7E091A101C5
:10141000F091A201E684F784008911890E940510E9
:101420006E157F0580079107B8F2E091A101F09158
:10143000A201158214821F910F91FF90EF900895E1
:101440002F923F924F925F926F927F928F929F92D4
:10145000AF92BF92DF92EF92FF920F931F93CF93C1
:10146000DF938091D8008F778093D8000E94B409D1
:1014700078945FEA652E51E0752EAA24AA94BA2CBE
:1014800041E0842E912C35E0432E512C24E0222E75
:10149000312C8091B5018F5F8093B50181509927E0
:1014A00087FD909583709070892B11F40E94E80954
:1014B000E091B301F091B40104910093830A319655
:1014C000F093B401E093B301C02FD0E0CC0FDD1F47
:1014D000CE018359994FFC01259134912F933F936D
:1014E0000895FEC00E9448068091830A90E08770AC
:1014F00090700E942606FC018081918173C2009148
:10150000AF011091B0010E94A809BC01C8010E945E
:101510006F0968C20E948A06CBCFE091AF01F091BB
:10152000B001EACF37C039C00091AF011091B001CE
:101530000E947206080F191FF801828155C0D090D1
:10154000AF010E9478067C010E9472068C010E9405
:1015500068060E0D1F1DF801D282AACF0E94480610
:101560000E94A80941C00091AF011091B0010E94F2
:101570007206080F191FF80182818093AF01F301F1
:10158000118296CF0E945E060E948A06CFC10E94F9
:1015900048068ECF0E94A80904C0802F90E0877073
:1015A00090706FEA71E00E94300615C208C00E9478
:1015B0006D07FC01009709F47BCF808115C00E9464
:1015C0006D07FC01009709F097CF72CF0E94480683
:1015D0000E949A0990CF0E949A099093B401809337
:1015E000B30157CF8091AF01992787FD9095FAC13C
:1015F0005FCF8091AF019091B001AA2797FDA09590
:10160000BA2F70C10091AF011091B0010E9478060D
:10161000080F191FBAC00091AF011091B0010E94CC
:10162000780608231923B1C00E944806F1C00E9421
:101630004806F3C00E944806E1C00E94480682E0C6
:1016400090E0D0C10E94480683E090E0CBC10E94A8
:1016500048063092B0012092AF012ACF0E9448067E
:101660005092B0014092AF0123CF0E94720640E039
:1016700050E02091AF013091B0012817390711F0E7
:1016800041E050E0CA010DC00E9478062091AF01F0
:101690003091B001821B930B04C08091AF019091F7
:1016A000B0010E947F07F5CE0E94A8090E9426067D
:1016B0007C01FC01008111810E94A809992787FD06
:1016C0009095800F911FF70108C00E94A8090E9401
:1016D0002606FC0180819181019691838083E8CE6A
:1016E0000E9448060E94A80904CF0E944806E09183
:1016F000A901F091AA0100CF0E944806E091A9013A
:10170000F091AA01828193816DC10E944806E09107
:10171000A901F091AA018481958164C10E944806C3
:10172000E091A901F091AA01868197815BC10E9495
:101730009A0920C0FE01EB51FF4F859194911AC088
:101740000E94A8098C010E94A8097C010E944806F9
:10175000E091B101F091B2013297F093B201E093C0
:10176000B101000F111FE01BF10B80819181B701C6
:101770000E94CA050E94C4069BCE0091AF01109141
:10178000B0010E947806082B192B1093B00100932A
:10179000AF018ECE0E9478060090AF0102C09595F1
:1017A00087950A94E2F71EC10E9478062091AF0146
:1017B0003091B001821B930B15C10E945E0680918F
:1017C000AD019091AE010EC10E945E060E947E06A0
:1017D000FC0120813181428153818091AD01909142
:1017E000AE01A091AF01B091B001281B390B4A0B9B
:1017F0005B0B12161306140615062CF49092B0011A
:101800008092AF0155CE211531054105510529F0D2
:10181000B092B001A092AF014BCE1092B0011092E5
:10182000AF0146CE0E9448061092AD011092AE0163
:101830001092AF011092B00179C00E94A20738CE79
:101840000E94A20773C00E945E068091AD01909134
:10185000AE01A091AF01B091B0010097A105B10513
:1018600039F40E947E060E943E0680E094E095C016
:101870000E947E06FC0160817181828193812091AA
:10188000AD013091AE014091AF015091B0010E9485
:101890008A172093AD013093AE014093AF0150936E
:1018A000B00144C00E9448068091830A90E087708E
:1018B00090700E942606FC0180819181A281B381F3
:1018C00011C00E945E068091AD019091AE01A09181
:1018D000AF01B091B001B095A095909581959F4FC3
:1018E000AF4FBF4F8093AD019093AE01A093AF0176
:1018F000B093B0011BC00E945E060E947E06FC01F0
:1019000060817181828193812091AD013091AE011E
:101910004091AF015091B0010E948A176093AD01D0
:101920007093AE018093AF019093B0010E943E0688
:10193000BFCD0E945E068091830A90E08770907010
:101940000E942606FC018091AD019091AE01A0910C
:10195000AF01B091B00180839183A283B3833BC078
:101960000E9448060E949A090E9493093BC033C016
:101970000E947206EC01009771F00E949A09C80F4C
:10198000D91F8091AF01888326C000C00E947206D3
:10199000EC01009739F482E090E060E070E00E9492
:1019A000C90586CD0E949A09C80FD91F8091AF0141
:1019B0009091B001998388830EC00E949A09FC011E
:1019C0008091AF019091B0019183808304C00E9407
:1019D00048060E948A060E9468066ACD0E94480650
:1019E0000E949A099093B0018093AF0161CDDF927C
:1019F000EF92FF920F931F93CF93DF93E091B30188
:101A0000F091B40104910093830A3196F093B401EC
:101A1000E093B301C02FD0E0CC0FDD1FCE0183597E
:101A2000984FFC01259134912F933F930895FEC068
:101A30000E9448068091830A90E0877090700E940F
:101A40002606FC01808191819093B0018093AF01C3
:101A50007AC20091AF011091B0010E94A809BC01A7
:101A6000C8010E946F09F0CF0E948A066CC2E09103
:101A7000AF01F091B001E6CF37C039C00091AF019E
:101A80001091B0010E947206080F191FF80182819F
:101A900055C0D090AF010E9478067C010E9472066A
:101AA0008C010E9468060E0D1F1DF801D2824BC2E8
:101AB0000E9448060E94A80941C00091AF01109100
:101AC000B0010E947206080F191FF80182818093ED
:101AD000AF011092B00137C20E945E060E948A06D2
:101AE000C7C10E9448062FC20E94A80904C0802FC7
:101AF00090E0877090706FEA71E00E9430060DC22E
:101B000008C00E946D07FC01009709F41CC2808187
:101B100015C00E946D07FC01009709F093CF13C216
:101B20000E9448060E949A098CCF0E949A099093BD
:101B3000B4018093B301F9C18091AF01992787FD6A
:101B4000909582CF00C28091AF019091B001AA27F9
:101B500097FDA095BA2F68C10091AF011091B00117
:101B60000E947806080F191FB6C00091AF011091AE
:101B7000B0010E94780608231923ADC00E944806D0
:101B8000EBC00E944806EBC00E944806DDC00E94E0
:101B9000480682E090E058CF0E94480683E090E03B
:101BA00053CF0E94480684E090E04ECF0E94480642
:101BB00085E090E049CF0E94720640E050E020911D
:101BC000AF013091B0012817390711F041E050E022
:101BD000CA0108C00E9478062091AF013091B0017F
:101BE000821B930B0E947F07A0C18091AF0190914F
:101BF000B001F8CF0E94A8090E9426067C01FC01D2
:101C0000008111810E94A809992787FD9095800F76
:101C1000911FF70108C00E94A8090E942606FC0136
:101C2000808191810196918380838DC10E944806B5
:101C30000E94A80904CF0E944806E091A901F091F2
:101C4000AA0100CF0E944806E091A901F091AA01E3
:101C500082819381F9CE0E944806E091A901F0911A
:101C6000AA0184819581F0CE0E944806E091A901E5
:101C7000F091AA0186819781E7CE0E949A0920C03F
:101C8000FE01EB51FF4F859194911AC00E94A80963
:101C90008C010E94A8097C010E944806E091B101D4
:101CA000F091B2013297F093B201E093B101000FCD
:101CB000111FE01BF10B80819181B7010E94CA05C1
:101CC0000E94C40640C10091AF011091B0010E9472
:101CD0007806082B192B1093B0010093AF0133C184
:101CE0000E9478060090AF0102C0959587950A94EE
:101CF000E2F7AACE0E9478062091AF013091B001A0
:101D0000821B930BA1CE0E945E068091AD01909143
:101D1000AE019ACE0E945E060E947E06FC012081E2
:101D20003181428153818091AD019091AE01A091AA
:101D3000AF01B091B001281B390B4A0B5B0B121697
:101D40001306140615061CF481E090E07DCE2115E3
:101D500031054105510519F08FEF9FEF75CE1092B7
:101D6000B0011092AF01EFC00E9448061092AD0181
:101D70001092AE011092AF011092B00179C00E9492
:101D8000A207E1C00E94A20773C00E945E06809174
:101D9000AD019091AE01A091AF01B091B00100975B
:101DA000A105B10539F40E947E060E943E0680E03E
:101DB00094E095C00E947E06FC0160817181828161
:101DC00093812091AD013091AE014091AF015091CE
:101DD000B0010E948A172093AD013093AE01409369
:101DE000AF015093B00144C00E9448068091830A1D
:101DF00090E0877090700E942606FC01808191819E
:101E0000A281B38111C00E945E068091AD019091C4
:101E1000AE01A091AF01B091B001B095A0959095A1
:101E200081959F4FAF4FBF4F8093AD019093AE010F
:101E3000A093AF01B093B0011BC00E945E060E9448
:101E40007E06FC0160817181828193812091AD01C8
:101E50003091AE014091AF015091B0010E948A17BC
:101E60006093AD017093AE018093AF019093B00188
:101E70000E943E0668C00E945E068091830A90E040
:101E8000877090700E942606FC018091AD019091B0
:101E9000AE01A091AF01B091B00180839183A28384
:101EA000B3833BC00E9448060E949A090E9493098E
:101EB000CBCD33C00E947206EC01009771F00E94F6
:101EC0009A09C80FD91F8091AF01888326C000C02E
:101ED0000E947206EC01009739F482E090E060E025
:101EE00070E00E94C9052FC00E949A09C80FD91F2F
:101EF0008091AF019091B001998388830EC00E94B8
:101F00009A09FC018091AF019091B0019183808387
:101F100004C00E9448060E948A060E94680613C0F8
:101F20000E9448060E949A098FCD8091B5018F5F6B
:101F30008093B501992787FD909583709070892BC8
:101F400011F40E94E809DF91CF911F910F91FF904A
:101F5000EF90DF9008950E9476108FE891E00E9444
:101F60007F1308950E94480680E090E060E070E0F2
:101F70000E94AB0F0E94680608951F920F920FB641
:101F80000F9211242F933F938F939F93AF93BF93FF
:101F90008091300190913101A0913201B0913301D3
:101FA000309134010196A11DB11D232F2D5F2D37D6
:101FB00020F02D570196A11DB11D2093340180936F
:101FC000300190933101A0933201B093330180919D
:101FD0002C0190912D01A0912E01B0912F0101961D
:101FE000A11DB11D80932C0190932D01A0932E0172
:101FF000B0932F01BF91AF919F918F913F912F91FE
:102000000F900FBE0F901F9018958FB7F8942091E6
:1020100030013091310140913201509133018FBF35
:10202000B901CA0108959B01AC017FB7F894809172
:102030002C0190912D01A0912E01B0912F0166B538
:10204000A89B05C06F3F19F00196A11DB11D7FBF70
:10205000BA2FA92F982F8827860F911DA11DB11D7A
:1020600062E0880F991FAA1FBB1F6A95D1F7BC01B8
:102070002DC0FFB7F89480912C0190912D01A09173
:102080002E01B0912F01E6B5A89B05C0EF3F19F0D6
:102090000196A11DB11DFFBFBA2FA92F982F882728
:1020A0008E0F911DA11DB11DE2E0880F991FAA1F7F
:1020B000BB1FEA95D1F7861B970B885E9340C8F249
:1020C000215030404040504068517C4F211531052F
:1020D0004105510571F60895019739F0880F991F50
:1020E000880F991F02970197F1F70895789484B5A6
:1020F000826084BD84B5816084BD85B5826085BD04
:1021000085B5816085BDEEE6F0E0808181608083E9
:10211000E1E8F0E0108280818260808380818160CC
:102120008083E0E8F0E0808181608083E1E9F0E095
:10213000808182608083808181608083E0E9F0E03B
:10214000808181608083E1ECF0E080818460808325
:10215000808182608083808181608083E3ECF0E015
:10216000808181608083E0ECF0E080818260808308
:10217000E2ECF0E0808181608083EAE7F0E080813A
:10218000846080838081826080838081816080839D
:102190008081806880830895CF93DF93482F50E03B
:1021A000CA018B54974FFC0134914956574FFA019D
:1021B0008491882369F190E0880F991FFC01E3590D
:1021C000F74FA591B491FC01E558F74FC591D49113
:1021D000662351F42FB7F8948C91932F909589230F
:1021E0008C93888189230BC0623061F42FB7F894F7
:1021F0008C91932F909589238C938881832B88834E
:102200002FBF06C09FB7F8948C91832B8C939FBFF0
:10221000DF91CF910895883071F1893068F4823070
:1022200031F1833020F4813009F042C01DC0833089
:1022300089F08430E9F512C08B3059F18C3028F4E4
:102240008930E9F08A30A1F51EC08C3031F18E3032
:1022500079F529C0809180008F7703C0809180003C
:102260008F7D80938000089584B58F7702C084B5F8
:102270008F7D84BD0895809190008F7707C08091F5
:1022800090008F7D03C080919000877F80939000A5
:1022900008958091C0008F7703C08091C0008F7D2A
:1022A0008093C00008958091C200877F8093C20010
:1022B0000895FF920F931F93F62E482F50E0CA0106
:1022C0008D52974FFC012491CA018B54974FFC010A
:1022D00014914956574FFA0104910023C9F0222363
:1022E00019F0822F0E940B11E02FF0E0EE0FFF1F7C
:1022F000E558F74FA591B4919FB7F894FF2021F4CA
:102300008C911095812302C08C91812B8C939FBF5F
:102310001F910F91FF9008952091750130917601E2
:102320008091770190917801281B390B2F733070C1
:10233000C90108952091750130917601809177014E
:10234000909178012817390719F42FEF3FEF09C052
:10235000E0917701F0917801EB5CFE4F8081282FAE
:1023600030E0C90108952091750130917601809186
:102370007701909178012817390719F42FEF3FEF73
:1023800013C0E0917701F0917801EB5CFE4F208162
:10239000809177019091780101968F73907090935E
:1023A00078018093770130E0C901089510927C0193
:1023B00010927B0188EE93E0A0E0B0E080937D0175
:1023C00090937E01A0937F01B09380018EE091E015
:1023D00090937A018093790108950F931F93DF936F
:1023E000CF930F92CDB7DEB78C016983809107013F
:1023F000882369F083E0BE016F5F7F4F41E050E0CA
:102400000E949D131816190614F49C0107C081E060
:1024100090E0F8019383828320E030E0C9010F90BF
:10242000CF91DF911F910F91089583E00E94741363
:102430000895CF93DF9312C082E00E94FF122FEF26
:102440008F3F9207C9F0E0917501F0917601EB5C46
:10245000FE4F8083D0937601C0937501C0917501C2
:10246000D09176012196CF73D070809177019091B1
:102470007801C817D90701F7DF91CF910895FC01C2
:1024800080818E5F808380E86FEE78E042E450E0E8
:102490000E9418130895FC0181819081913A59F4AA
:1024A000813209F04CC080E060E071E047E050E02C
:1024B0000E94181342C0913209F041C0803239F4B1
:1024C00080E091E067E070E00E945C1336C08232E9
:1024D00009F035C0828180930701809100019091BD
:1024E0000101A0910201B0910301805B9440A040E2
:1024F000B04019F58091070180FD12C087E797E78A
:1025000090930108809300082BE088E190E00FB6DB
:10251000F894A895809360000FBE209360000DC0D2
:1025200088E10FB6F89480936000109260000FBEAF
:10253000A895109201081092000881E0089580E0AB
:102540000895CF92DF92EF92FF920F931F93CF9354
:10255000DF937C016B018A01C0E0D0E00FC0D6019F
:102560006D916D01D701ED91FC910190F081E02D0D
:10257000C7010995C80FD91F015010400115110559
:1025800071F7CE01DF91CF911F910F91FF90EF90E6
:10259000DF90CF900895282F809189018823C1F082
:1025A00057FF1AC015C02898909388018091F100B8
:1025B0008193E217F307B9F74115510539F080917E
:1025C000F200882319F48BE68093E800AFBF02C0C5
:1025D0004FEF5FEFCA010895AFB7F89427702093CB
:1025E000E9008091F200282F30E0241735070CF421
:1025F000A901FB019B01240F311D94E6DACFDF9383
:10260000CF930F92CDB7DEB7BE016F5F7F4F41E032
:1026100050E00E94CB12019719F02FEF3FEF03C05B
:102620008981282F30E0C9010F90CF91DF91089563
:10263000FF920F931F93F82E142F052F40918C01BA
:1026400050918D01212F302FC901DC01FB016EEF6C
:1026500029C0F7FE02C0949101C0908120918A01A7
:1026600030918B0124173507ACF48091E800857018
:10267000E1F38091E80082FF03C02FEF3FEF17C026
:102680009093F100C90101968F739070892B11F41A
:102690006093E8002F5F3F4F30938B0120938A01B6
:1026A000119731961097A9F6812F902F9C01C9019F
:1026B0001F910F91FF9008959C018091E80082FF87
:1026C000FCCFF901260F311D03C08091F1008193E9
:1026D000E217F307D1F7289884E6809388018BEFFF
:1026E0008093E800CB0108958093E9008091F20087
:1026F000882319F08AE38093E800089508951092E2
:10270000890181E08093D70080EA8093D80082E13C
:1027100089BD09B400FEFDCF61E070E080E090E08B
:102720000E94131080E98093D8008CE08093E2002F
:102730001092E000559A209A08955F926F927F92CE
:102740008F929F92AF92BF92CF92DF92EF92FF92C1
:102750000F931F93CF93DF93E82E842E752E8091D5
:102760008901882371F18B01242F352FC901EC01D8
:102770007AEFF72E67E0962E9E2050E4552E8E2D90
:1027800090E040E2A42EB12CA822B9223AE3632EB5
:1027900020E4C22ED12CC822D92258C09FB7F89469
:1027A0009092E9008091E80085FD02C020E004C01D
:1027B0008091F200252D281B9FBF222361F4FA94FB
:1027C00019F42FEF3FEF4DC061E070E080E090E042
:1027D0000E9413103BC0822F90E0C817D9070CF459
:1027E0002C2FC21BD1094FB7F8949092E900A11485
:1027F000B10421F406C01092F10021502223D9F730
:1028000019C0E7FC03C0F801922F10C0C801322F95
:1028100006C0FC010196E491E093F10031503323AE
:10282000C1F706C081918093F10091509923D1F7AF
:10283000020F111D8091E80085FF05C0209729F443
:10284000C114D10411F06092E8004FBF209709F045
:10285000A5CF5D9884E680938701282D372DC90187
:102860009C01C901DF91CF911F910F91FF90EF90D3
:10287000DF90CF90BF90AF909F908F907F906F90A0
:102880005F9008951F920F920FB60F9211242F930D
:102890003F934F935F936F937F938F939F93AF93E8
:1028A000BF93EF93FF938091E1001092E100982F86
:1028B00083FF0FC01092E90081E08093EB0010923B
:1028C000EC0082E38093ED001092890188E0809310
:1028D000F00092FF34C083E08093E9008091F20021
:1028E000882319F08AE38093E8008FB7F89492E088
:1028F0009093E9009091F2008FBF992321F089E72E
:1029000091E00E94191280918701882351F08091F3
:10291000870181508093870180918701882309F482
:102920005D9A80918801882351F0809188018150BF
:102930008093880180918801882309F4289AFF9167
:10294000EF91BF91AF919F918F917F916F915F9127
:102950004F913F912F910F900FBE0F901F901895A0
:102960000F931F93DF93CF930F92CDB7DEB71982EA
:102970008E010F5F1F4FC8010E943F12C8010E94C5
:102980004917898190E00F90CF91DF911F910F91AE
:1029900008951F920F920FB60F921124EF92FF929B
:1029A0001F932F933F934F935F936F937F938F93D7
:1029B0009F93AF93BF93EF93FF93DF93CF93CDB7E5
:1029C000DEB76197DEBFCDBF1092E9008091E800CD
:1029D00083FF0FC1FE0131969E01275F3F4F03C069
:1029E0008091F1008193E217F307D1F7289884E6EC
:1029F0008093880182EF8093E800998197FF05C05A
:102A00008091E80080FFFCCF03C08EEF8093E80048
:102A1000292F30E0C90180769070892B09F0C2C05F
:102A20008A81882329F41092F1001092F100D6C017
:102A3000813009F4D3C0833009F4D0C0853049F423
:102A40008091E80080FFFCCF8B8180688093E30059
:102A5000C5C0863009F07CC01C81EF80F88412303C
:102A6000C1F51092E90010928B0110928A01109228
:102A70008D0110928C010E94B01499E0FE013996EC
:102A8000DF01292F1D922A95E9F799871A8791E08E
:102A90009E8790E8988B9AEF998B20918A013091CC
:102AA0008B01275F3F4F3C872B878D871092E90072
:102AB00010928B0110928A01F0928D01E0928C01AC
:102AC00080E0BF0149E050E00E9418130E94B0145A
:102AD00085C01092E90010928B0110928A01F09249
:102AE0008D01E0928C01123241F482E290E00E946A
:102AF0004117892B09F476C071C0113079F488E050
:102B0000E816F10419F481E080938E0180918E0122
:102B1000882309F06BC0EFE6F9E013C0133009F029
:102B200061C08B81882319F4E1E3F9E00AC08230A7
:102B300019F4E5E3F9E005C0813009F053C0E7E599
:102B4000F9E0449180E8BF0150E00E94181346C0AC
:102B5000873009F447C0883021F481E08093F10088
:102B60003DC08930D9F523703070232BD9F5E4E9C5
:102B7000F9E091E031E026E39093E9003093EB0037
:102B800084918093EC002093ED009F5F3196953007
:102B900099F78EE78093EA001092EA008B81809388
:102BA00089011CC08F8198851092E90010928B01D9
:102BB00010928A0190938D0180938C018D818823DE
:102BC00029F4CE0101960E944B1206C0823051F4C6
:102BD000CE0101960E941216882321F08EEF809379
:102BE000E80007C081E28093EB0003C0E1E8F9E070
:102BF000A8CF6196DEBFCDBFCF91DF91FF91EF915E
:102C0000BF91AF919F918F917F916F915F914F9104
:102C10003F912F911F91FF90EF900F900FBE0F905B
:102C20001F901895FC0191818081813A31F4913097
:102C300089F080E0933089F40DC0813269F49B30D3
:102C400021F482818093080105C09A3029F48281A1
:102C50008093090181E0089580E00895EF92FF924A
:102C60000F931F938C01E62EDC01ED91FC91048003
:102C7000F581E02D0995F82ED801ED91FC910680A3
:102C8000F781E02DC8016E2D09958F2D90E01F91E1
:102C90000F91FF90EF90089510929001109294017F
:102CA0001092930180E291E09093920180939101C0
:102CB0000895EF92FF920F931F93DF93CF930F929C
:102CC000CDB7DEB789838B017A0184E0BE016F5FE7
:102CD0007F4F41E050E00E949D1384E4B801A701BA
:102CE0000E949D130F90CF91DF911F910F91FF9044
:102CF000EF90089582E048E050E00E945916089550
:102D0000FC011682178210861186128613861482A1
:102D10003496BF010E947A160895DC01683810F0DD
:102D2000685829C0E62FF0E067FF13C0E058F04074
:102D300081E090E002C0880F991FEA95E2F7809544
:102D400014962C911497282314962C93149760E0D2
:102D500012C0EA5EF54F6491662319F420E030E07A
:102D60001DC067FF08C014968C9114978D7F149630
:102D70008C9314976F77FD0190E0662321F0868194
:102D8000861709F416829F5F31969630B1F7CD0110
:102D90001496BD010E947A1621E030E0C901089521
:102DA000CF93DF93DC01683810F0685825C0E62F18
:102DB000F0E067FF12C0E058F04081E090E002C010
:102DC000880F991FEA95E2F714962C911497282BF7
:102DD00014962C93149760E00FC0EA5EF54F64914F
:102DE0006623D9F167FF08C014968C91149782600E
:102DF00014968C9314976F7716968C911697861766
:102E0000A9F117968C911797861781F118968C91D6
:102E10001897861759F119968C911997861731F1E1
:102E20001A968C911A97861709F11B968C911B970D
:102E30008617E1F0ED01E0E0F0E09E2F8E8188231F
:102E400021F4EA0FFB1F668306C09F5F319621962F
:102E5000E630F10591F7963049F481E090E0139661
:102E60009C938E93129720E030E007C0CD0114961A
:102E7000BD010E947A1621E030E0C901DF91CF91B7
:102E8000089580E868E979E045E650E00E9418136B
:102E90000895FC0180818F5F808380E86DEF79E089
:102EA00049E150E00E9418130895F8940C94AB1770
:102EB000FB01DC0102C005900D9241505040D8F753
:102EC0000895DC0101C06D9341505040E0F7089532
:102ED000A1E21A2EAA1BBB1BFD010DC0AA1FBB1F1E
:102EE000EE1FFF1FA217B307E407F50720F0A21B90
:102EF000B30BE40BF50B661F771F881F991F1A94FD
:102F000069F760957095809590959B01AC01BD0126
:102F1000CF01089597FB092E05260ED057FD04D04A
:102F2000D7DF0AD0001C38F4509540953095219594
:102F30003F4F4F4F5F4F0895F6F7909580957095EE
:102F400061957F4F8F4F9F4F0895EE0FFF1F0590A4
:0A2F5000F491E02D0994F894FFCFEE
:102F5A0000E1000000000000010100000000ED1186
:102F6A00A1128C11B3119A11151219120000000046
:0A2F7A002E16A112D0168D16801637
:00000001FF
